{"abi":[{"type":"function","name":"getScores","inputs":[{"name":"gameId","type":"bytes32","internalType":"bytes32"}],"outputs":[{"name":"","type":"tuple[]","internalType":"struct ScoreBoard.Score[]","components":[{"name":"player","type":"address","internalType":"address"},{"name":"score","type":"uint256","internalType":"uint256"}]}],"stateMutability":"view"},{"type":"function","name":"submitScore","inputs":[{"name":"gameId","type":"bytes32","internalType":"bytes32"},{"name":"player","type":"address","internalType":"address"},{"name":"score","type":"uint256","internalType":"uint256"}],"outputs":[],"stateMutability":"nonpayable"},{"type":"event","name":"ScoreSubmitted","inputs":[{"name":"gameId","type":"bytes32","indexed":true,"internalType":"bytes32"},{"name":"player","type":"address","indexed":true,"internalType":"address"},{"name":"score","type":"uint256","indexed":false,"internalType":"uint256"}],"anonymous":false}],"bytecode":{"object":"0x6080604052348015600e575f5ffd5b506105038061001c5f395ff3fe608060405234801561000f575f5ffd5b5060043610610034575f3560e01c80632cd6468c14610038578063fbaa430d14610054575b5f5ffd5b610052600480360381019061004d9190610317565b610084565b005b61006e60048036038101906100699190610367565b610189565b60405161007b9190610485565b60405180910390f35b5f5f8481526020019081526020015f2060405180604001604052808473ffffffffffffffffffffffffffffffffffffffff16815260200183815250908060018154018082558091505060019003905f5260205f2090600202015f909190919091505f820151815f015f6101000a81548173ffffffffffffffffffffffffffffffffffffffff021916908373ffffffffffffffffffffffffffffffffffffffff1602179055506020820151816001015550508173ffffffffffffffffffffffffffffffffffffffff16837f17e3dd5795d9c42e69290bf23f2cbc4ec86ecb77a8b1eca31236a14755c4d3ce8360405161017c91906104b4565b60405180910390a3505050565b60605f5f8381526020019081526020015f20805480602002602001604051908101604052809291908181526020015f905b82821015610248578382905f5260205f2090600202016040518060400160405290815f82015f9054906101000a900473ffffffffffffffffffffffffffffffffffffffff1673ffffffffffffffffffffffffffffffffffffffff1673ffffffffffffffffffffffffffffffffffffffff168152602001600182015481525050815260200190600101906101ba565b505050509050919050565b5f5ffd5b5f819050919050565b61026981610257565b8114610273575f5ffd5b50565b5f8135905061028481610260565b92915050565b5f73ffffffffffffffffffffffffffffffffffffffff82169050919050565b5f6102b38261028a565b9050919050565b6102c3816102a9565b81146102cd575f5ffd5b50565b5f813590506102de816102ba565b92915050565b5f819050919050565b6102f6816102e4565b8114610300575f5ffd5b50565b5f81359050610311816102ed565b92915050565b5f5f5f6060848603121561032e5761032d610253565b5b5f61033b86828701610276565b935050602061034c868287016102d0565b925050604061035d86828701610303565b9150509250925092565b5f6020828403121561037c5761037b610253565b5b5f61038984828501610276565b91505092915050565b5f81519050919050565b5f82825260208201905092915050565b5f819050602082019050919050565b6103c4816102a9565b82525050565b6103d3816102e4565b82525050565b604082015f8201516103ed5f8501826103bb565b50602082015161040060208501826103ca565b50505050565b5f61041183836103d9565b60408301905092915050565b5f602082019050919050565b5f61043382610392565b61043d818561039c565b9350610448836103ac565b805f5b8381101561047857815161045f8882610406565b975061046a8361041d565b92505060018101905061044b565b5085935050505092915050565b5f6020820190508181035f83015261049d8184610429565b905092915050565b6104ae816102e4565b82525050565b5f6020820190506104c75f8301846104a5565b9291505056fea2646970667358221220f5859073c6a196a37c09cc5be54deedba6c607f9980c6aca94a6716594dd0d0464736f6c634300081e0033","linkReferences":{}},"methodIdentifiers":{"getScores(bytes32)":"fbaa430d","submitScore(bytes32,address,uint256)":"2cd6468c"},"id":0}